:020000040800F2
:1000000008060020C50000089D0A0008A90600088F
:1000100000000000000000000000000000000000E0
:10002000000000000000000000000000350B000888
:1000300000000000000000009F0A0008370B0008C5
:10004000D700000800000000D7000008D700000813
:10005000D7000008D7000008D7000008D700000824
:1000600000000000D7000008D7000008D7000008F3
:10007000D7000008D7000008D700000800000000E3
:10008000D70000080000000000000000D7000008B2
:1000900000000000070C0008D7000008D700000887
:1000A00000000000D700000800000000090C000854
:1000B0000348854600F03AFA00480047A1150008B9
:1000C000080600200448804704480047FEE7FEE792
:1000D000FEE7FEE7FEE7FEE7050C0008B1000008BA
:1000E00030B50B46014600202022012409E00D46D0
:1000F000D5409D4205D31D469540491B2546954058
:1001000040191546521E002DF1DC30BDD2B201E07F
:100110000270401C491EFBD270470022F6E710B562
:1001200013460A4604461946FFF7F0FF204610BD65
:10013000421C0178401C0029FBD1801A7047F0B5A1
:100140001FB40646002082B005464024019100906D
:100150001BE0019922460F46304600F009FA049A46
:10016000059B801A994110D310461946224600F08B
:10017000EFF9361A8F410197224601200021009F96
:1001800000F0E6F938184D4100902046641E002822
:10019000DFDC019B00982946324607B0F0BD000025
:1001A000F0B507460846584087B0C00F0490480095
:1001B0000E46590040084908BC1A884105D2384605
:1001C00031461E4617460B4602465800400810436B
:1001D0004CD0300D039040055900400D490D05905D
:1001E000401A0290402872DA18030121000B090519
:1001F0000843019004980092002805D001995242CA
:100200000020884100920190029840210A1A019929
:10021000009800F09DF905460C466B4607CB00F0B0
:10022000B8F9C0197141039A0E0D0023D717564033
:100230001A467A40164344D0049A002A2DD0029AD6
:10024000012A039A15DC1205C01A914101263605D0
:10025000001C7141D20F059ED207009301920296B5
:100260002A46234600F0B5F907B0F0BD38463146BE
:10027000FAE71605224A0F46B218C01AB741012103
:100280000905001C4F4100187F411146181879419B
:10029000E20F10436D19644113E0E2076D08154346
:1002A0006408C2071443039A01261205C01A91413B
:1002B0003605001C7141CE07400830434908C0187C
:1002C00051412A46234600F077F9CDE7FFE704982D
:1002D00001224000C117121A00238B4104983146B5
:1002E000C417381AA141EEE730B40124E407634093
:1002F00030BC55E730B40124E407614030BC4FE71F
:100300000000E0FFF0B51FB488B00B9909980024F5
:1003100048400999C00F490049080991C0070B9945
:100320000090490049080B9109990898A64608438E
:100330001CD00B990A98084318D009980124400052
:10034000420D4800410D099824050003000B20438D
:1003500009900B980003000B20430B9050181C4988
:100360004018002201901446104605E00020014686
:100370000DB0F0BD032801DA034600E003239C46DC
:10038000C11A0AAE0AE05F0008ADED5B4F00F75BF3
:100390007D430027AA187C41491C5B1E6145F2DDA4
:1003A000410004AB5A522104120C0A43240C401C95
:1003B0000828DFDB019802900099704601910090B7
:1003C000059B049A0799069800F003F9D0E700000E
:1003D0000DFCFFFFF0B50C465C4085B0E40FE40770
:1003E00003944C00002664085900944649080246CC
:1003F0000296224321D062460A431ED06200570D66
:100400004A000E032303550D012402462C492405FE
:10041000781B1B0B360B4018234326436146009084
:100420001C46501AB44103D30098401C009002E0CF
:10043000921800985B41002803DA0020014605B0BD
:10044000F0BD0020012109050746864611E06446FB
:100450001D46141BB54106D36546521BB341744675
:1004600007430C43A646CD07400849082843921885
:100470005B4105460D43EAD11046184313D0604650
:10048000194650407140084306D06046101AB341E7
:1004900006D20122002306E000220123DB0702E04E
:1004A0000122D2435310009874460105381C614163
:1004B000029C039D0019694100F07EF8BFE700002F
:1004C000FD0300004A0009030123090B1B05194322
:1004D0000A4B10B5520D9A4202DA0020014610BDB7
:1004E000064B34339A4203DC9A1A00F041F810BDEF
:1004F000034BD21800F02CF810BD0000FF030000E1
:10050000CDFBFFFF10B5002904DB0124E4074042C6
:100510008C412146002B04DB1C460123DB075242A1
:10052000A341994200D1904210BD0000064C012524
:10053000064E05E0E36807CC2B430C3C984710348B
:10054000B442F7D3FFF7B8FDBC160008DC1600086C
:1005500010B5202A04DB0146203A9140002010BD4E
:10056000914020239C1A0346E3401943904010BD5C
:1005700010B5202A04DB0846203AD040002110BDE7
:100580000B46D340D0402024A21A9140084319467C
:1005900010BD10B5202A06DBCB170846203A1041C3
:1005A000C1170B4306E00B461341D0402024A21A8A
:1005B00091400843194610BD10B5002B08DA0024FD
:1005C000401C614192185B411A4301D14008400030
:1005D00010BDF0B51FB482B005460C0003D008462C
:1005E00000F04AFB02E000F047FB2030024600909A
:1005F00021462846FFF7ACFF049B059A04460F46A8
:1006000018431143084314D0184610431BD00098D8
:1006100040210A1A18460599FFF7AAFF05460E461B
:10062000009A05990498FFF793FF084305D001202D
:1006300004E02046394607B0F0BD0020C11705434D
:100640000E432C43374300990E986305401A7905F1
:10065000E40A00220C43FD0A0A3002D500200146BC
:10066000E9E70105101969410C9C0D9D00196941CC
:10067000FFF7A2FFDFE7000000B5012087B080048C
:1006800000F056F8402000900120019000200390D7
:100690000490032002906946024800F061F807B018
:1006A00000BD000000040048FEE7000070B5032014
:1006B00086B0400400F03CF8012508200024032601
:1006C0006A46049551C26946064800F049F802207E
:1006D0006A46049551C209206946C00600F040F8F8
:1006E00006B070BD0004004870B5012086B040041B
:1006F00000F01EF80120800400F01AF800245020B9
:100700000125039403266A46049461C209206946C0
:10071000C00600F025F8802003946A46049461C264
:100720006946024800F01CF806B070BD000400489D
:1007300008B504494A6902434A6149690140009188
:1007400008BD00000010024008B504494A69024390
:100750004A6149690140009108BD00000010024053
:10076000F0B500243EE001232A46A3401A4038D0C9
:100770004F680668134653435D005D19AE435F43FF
:100780003E4306604E68012E01D0022E05D18F68CF
:1007900086685F43AE433E4386600F69C668AE43DA
:1007A0001D467D432E43C6604D68022D19D1FF2A98
:1007B0000AD84E69056A534353431A01D21A954326
:1007C00073431D4305620CE0130A1A465A435A4309
:1007D0005A4313019E1A4D69436A6A43B343134354
:1007E0004362641C0A681546E240BCD14A68012A8B
:1007F00001D0022A06D1CB6841682A4691435A4368
:10080000114341600020F0BD0069814301D0002008
:10081000704701207047000010B57D21C900FFF727
:100820005FFC0449401E4861002088610520086182
:1008300010BD000000E000E0014610B500200029D6
:100840000FD110490A6B9207920F012A0AD0022A8F
:1008500011D0032A09D000F03DF900F021F900F091
:100860002DF910BD00F036F910BD09688907C90FD0
:10087000FAD0054810BD096A8907C90FFAD00120CE
:10088000C00310BD0010024000127A000149086048
:10089000704700000000002070B5044600680D4657
:1008A000012630403CD1E9686868AA690843296993
:1008B0001143084321681B4A114008432060A8687F
:1008C0006168032212039143014361606969A06872
:1008D000121190430843A0601348844220D10020A5
:1008E000FFF7AAFF00281BD02968002918D0012390
:1008F000AA690026DB039A420CD140004A088018FE
:10090000FFF7EEFB81B2094808400907490F014390
:10091000E16005E04A081018FFF7E2FB80B2E060F2
:10092000304670BDF369FFFF00380140F0FF000062
:10093000F0B587B018216846FFF7EFFB012080056E
:10094000FFF702FF01204004FFF7FEFE01208004B4
:10095000FFF7FAFE002409270225FF0601946946E5
:10096000384600950494FFF7FBFEE802032600904A
:100970006946019604943846FFF7F2FEA8030394F3
:1009800004946A46059461C269463846FFF7E8FE5A
:1009900008200F4F00900194694604943846FFF7F1
:1009A000DFFE1020039404946A46059461C26946F0
:1009B0003846FFF7D5FE2020039404946A46059438
:1009C00061C269463846FFF7CBFE07B0F0BD0000B4
:1009D00000040048F0B58FB01C2106A8FFF79DFB6E
:1009E00018216846FFF799FB28480121826989038D
:1009F0000A43826182690A400D924269C9000A4332
:100A000042614069002408400D9008120125022629
:100A1000032703946A4605950494C1C209206946D8
:100A2000C006FFF79DFEA80203946A46059504944C
:100A3000C1C209206946C006FFF792FE144801684A
:100A40000902090A01601349E80608604B20C00149
:100A500006900794089409940B940C940C200E4C67
:100A60000A9006A92046FFF717FFA16820158143C9
:100A7000A1606068E11488436060A0680821884331
:100A8000A0602068284320600FB0F0BD0010024035
:100A900018E400E000E100E00038014070477047D2
:100AA00004494968F0221140034A0909515CC840D1
:100AB0007047000000100240A4160008034949686E
:100AC000034A4905490F515CC84070470010024075
:100AD000B416000810B5064841680C2001400548CE
:100AE00005D0042903D0082901D100F005F810BD74
:100AF0000010024000127A0010B50C4C616801220F
:100B000012040B48114002D0914200D14000E16A2A
:100B10000907090F491CFFF7E3FA61680F229204E5
:100B20001140890C891C484310BD00000010024090
:100B300000093D007047704770B52F4801210268D9
:100B40008A430A43026000682C4C20680A4610431E
:100B5000206020688007C00FFBD02368F820834303
:100B600080210B432360636B13436363626B9207C3
:100B7000D20FFBD0626B82430A4362630521606837
:100B8000C9043D221204904308436060E06A0009F2
:100B90000001E06220680121090608432060206806
:100BA0008001C00FFBD06068F021884360606068FE
:100BB0000721090288436060616802208908890072
:100BC000014361600C21606808400828FBD10C4D8E
:100BD0002846FFF721FE2846FFF758FE606B0421E8
:100BE00088436063206B800880002063206B1021A5
:100BF0008843206370BD00000020024000100240C6
:100C0000006CDC0270477047704700000FB410B5ED
:100C10000121002403AB49020A48029A00F016F8A9
:100C20000848FFF785FA0849064B05E01A5D0A8572
:100C3000641CCA691206FCD58442F7D310BC08BCF8
:100C400004B0184704000020003801407CB5154668
:100C5000024600201C4600290BD0491E009201913B
:100C6000044B6A462146284600F0E6F8009A002127
:100C700011707CBD711500082021020C01D01021DB
:100C80001046020A01D010460839020901D0104668
:100C9000091F820801D01046891E420801D0881E13
:100CA0007047081A704702E008C8121F08C1002ADE
:100CB000FAD170477047002001E001C1121F002ADD
:100CC000FBD17047F0B51FB486B00998089A030DA0
:100CD0000021024314D05148514A181850430514BA
:100CE0001198012810981AD0281A401C00264D4F40
:100CF0004D49009601910490002812DA444211E017
:100D00001198012449A3012801D11098C1430698E4
:100D1000119A84600360C26041600BB0F0BD404234
:100D2000E4E70446210500203F4A001C514103919D
:100D3000029012E0E00707D032463B460199009846
:100D4000FFF7E0FA0191009032463B461046194603
:100D5000FFF7D8FA06460F466410002CEAD1049833
:100D6000039B0028029A0999089806DAFFF7CAFA45
:100D7000019B009AFFF7C6FA05E0FFF72BFB019BEA
:100D8000009AFFF727FB04460E460022284BFFF788
:100D9000B9FB03D80020C043014607E00022254BE1
:100DA00020463146FFF7FCF9FFF78CFB102409E0E1
:100DB000002C0ADB0A220023FFF7C1F9079B30321F
:100DC0001A55641E02460A43F2D11122641C079B85
:100DD000121B1C19119B012B03D0012308430ED1B8
:100DE0000AE0084304D0112010900020119077E70A
:100DF0001098151A6D1E0BE01098824202DD002338
:100E00006D1C03E0824201DA00236D1E002BEED040
:100E1000069811998260C16030C07EE701FCFFFF37
:100E2000104D0000000014400000F03F30000000B2
:100E30000000F0430000E03FFFB597B006460025F4
:100E400018E2252877D100242746FD49049400E0C4
:100E50000443761C32780120203A90400842F7D1B2
:100E600030782A280ED002223078014630390929FC
:100E700016D804990A235943303940181443761C74
:100E80000490F1E7189802C804911890002904DA38
:100E90000120400304434842049002200443761C8E
:100EA00030782E2814D1042004437078761C2A2828
:100EB00009D11898761C80C8189009E00A214F4380
:100EC000303FC719761C3078014630390929F5D9E9
:100ED00030786C2810D006DC4C281AD068280ED048
:100EE0006A2817D104E0742813D07A2812D110E0B0
:100EF0000120400504430CE00121090501E0032124
:100F000009050C437178814203D1012000052418A2
:100F1000761C761C3078119066280BD013DC58288C
:100F20007DD009DC00287BD04528F6D04628F4D0B7
:100F300047281AD1A5E118E0632835D0642870D07D
:100F4000652812D19DE170286CD008DC6728F1D0AB
:100F500069287BD06E280DD06F2806D1BAE073289F
:100F60002ED0752871D0782859D01A9A199990479F
:100F70006D1C7EE16002400F022809D003280DD0CD
:100F80000428189801680DD00D60001D189070E1BC
:100F90001898EA1701680D604A60F6E7189801682A
:100FA0000D80F2E70D70F0E718986A46017811722B
:100FB000001D18900020507202A80090012005E04A
:100FC000189802C8189000200091C04361070DD501
:100FD000002101E00199491C0191B94212DA8142D4
:100FE000F8DB009A515C0029F4D10BE0002101E00C
:100FF0000199491C01918142FADB019A0099895CAF
:101000000029F5D1019904981A9B471A21463846C0
:10101000199A00F097FA0199401945180BE04FE032
:101020002CE113E04EE0009800990078491C0091F3
:101030001A9A199990470198401E0190401CF2D1CC
:10104000214638461A9B199A10E137E00A20002100
:10105000009001916002410F022907D0189A01CA3D
:101060001892C2179446032908D00AE01898C01DA8
:10107000C108C90005C91891944607E000B2C2171B
:101080009446042902D140B2C1178C460022614621
:10109000944506DA0A460021404291418C462D21B2
:1010A00002E0210504D52B216A461173012103E0DA
:1010B000E10701D02021F7E7029155E00A200AE07C
:1010C000102008E01020009000210420044301912A
:1010D000082703E008200021019100906002410FE1
:1010E000022907D0189A01CA1892002294460329AF
:1010F00008D008E01898C01DC108C90005C918919A
:10110000944603E080B2042900D1C0B200210291CC
:10111000210729D51199702906D0009A1021019B29
:101120004A401A4305D00EE040216A46117301215E
:1011300008E06146014306D030216A4611731199D7
:10114000517302210291009A0821019B4A401A43DF
:101150000AD16146014301D1610705D530216A46B4
:10116000117301217F1E02911199582904D035A1D4
:101170000E910DA90D910DE037A1F9E76146019B94
:10118000009AFEF7DCFF0E9B8C469B5C0D9A521E6C
:101190000D92137061460143F0D10D9805A9081A0C
:1011A00020300190600703D501200004844300E053
:1011B00001270198874201DD381A00E000200199DB
:1011C00000904118029809180498401A0490E0030E
:1011D00006D421461A9B199A049800F0B3F94519D0
:1011E000002706E003A81A9AC05D199990476D1C64
:1011F0007F1C02988742F5DBE0030CD521461A9B41
:10120000199A049800F09EF9451904E01A9A3020C2
:10121000199990476D1C0099481E00900029F5DC33
:1012200008E00D980D990078491C0D911A9A1999AA
:1012300090476D1C0199481E01900029F1DC63E183
:10124000092801003031323334353637383961629C
:101250006364656600000000303132333435363760
:1012600038394142434445460000000000F05AF935
:101270004519761C3078002800D0E2E528461BB0DE
:10128000F0BD600700D406271898C01DC108C9002A
:1012900048680A680831C30FDB071891190001D0AC
:1012A0009CA108E0210501D59BA104E0E10701D044
:1012B0009AA100E09AA1430011985B08109165285B
:1012C0000CD006DC452809D046281DD0472841D13E
:1012D00041E0662818D067283CD13CE00021112F5E
:1012E00001DB112000E0781C0191009008A911A8F1
:1012F000FFF7E8FC139905910021119A15927F1CC4
:1013000012980197009150E00120C007039001203E
:10131000019008A9009711A8FFF7D4FC139A14991B
:1013200005920022119B009212981593059A019242
:10133000002901D0104602E0791C40180190381AAB
:1013400001D5019804E04042401E0090781C0190B5
:10135000C01B029043E0012F00DA01270021112F6A
:1013600001DD112000E038460191009008A911A884
:10137000FFF7A8FC13990591119A00211298159274
:101380000091019721070CD40599B94201DB01991D
:1013900000E00191012904DD159A491E515C3029B4
:1013A00006D0B84201DA011D05DA0121029115E0EB
:1013B0000199491EEDE7002805DC009941180091CC
:1013C0000199091A03E0019A411C914200DD019143
:1013D0000099401A401C02900120C007039020078A
:1013E00006D402990198814202DB0020C04302909A
:1013F00000206946C87707AF012103980337C90762
:10140000884224D0022011902B20129003980028AB
:101410000CDA404203902D20129007E00A21039835
:10142000FEF75EFE30317F1E039039701199481E21
:1014300011900029F2DC03980028EFD1791E129850
:1014400008703078202108404530BF1E387006A84B
:10145000C01BC01D039010980078002800D0012008
:10146000019941180298C01709180398091804989F
:10147000401A401E0490E00306D421461A9B199A94
:10148000049800F05FF8451910980078002803D000
:101490001A9A199990476D1CE00324D521461A9B8E
:1014A000199A049800F04EF845191CE0009800289D
:1014B00007DB00990598884203DD1598405C19996F
:1014C00001E0199930201A9A904700986D1C401C31
:1014D00000900298401E0290002804D11A9A2E20F3
:1014E000199990476D1C0199481E01900029DDDC77
:1014F00005E038781A9A7F1C199990476D1C03995A
:10150000481E03900029F4DC21461A9B199A04987E
:10151000ACE600002D0000002B00000020000000C1
:1015200000000000F8B5044600251E461746880452
:1015300004D405E039462020B0476D1C641EF9D55F
:101540002846F8BDFFB50446002581B01E46C803F5
:1015500001D5302700E02027880404D505E038466F
:101560000399B0476D1C641EF9D5284605B0F0BD3F
:101570004A68002A06D00A68531C0B60107048683D
:10158000401E486070470000044B03E01946491EA6
:1015900009B2FCD2401E00B2F8D270478713000097
:1015A00008B53148012182690A4382618169C9070E
:1015B000C90F0091C26901040A43C261C0690840B1
:1015C0000090FFF7B9FAFFF7B3F9FFF703FAFFF757
:1015D00053F8FFF789F8FFF769F8FF25F535284636
:1015E000FFF7D2FF21A0FFF711FB2846FFF7CCFF42
:1015F000214C4021A1612846FFF7C6FF4020A06290
:101600002846FFF7C1FF0925ED0608212046FFF710
:10161000FBF801280ED10520FFF7B6FF0821204670
:10162000FFF7F2F80128F9D00520FFF7ADFF13A06E
:10163000FFF7ECFA02212846FFF7E6F801280ED161
:101640000520FFF7A1FF02212046FFF7DDF8012862
:10165000F9D00520FFF798FF0CA0FFF7D7FA0FA0ED
:10166000FFF7D4FAD1E700000010024073746172F2
:10167000746564200D0A0000000400486B65793130
:1016800020707265737365640D0A00006B657932B2
:101690002070726573736564000000002E2E2E0D9D
:1016A0000A00000000000000000000000102030426
:1016B000060708090000000001020304DC16000808
:1016C0000000002004000000A60C0008E01600083E
:1016D0000400002004060000B60C000800127A0086
:04000005080000B13E
:00000001FF
