:020000040800F2
:1000000008060020C50000087D130008210700082D
:1000100000000000000000000000000000000000E0
:10002000000000000000000000000000FD150008B6
:10003000000000000000000019150008FF1500086E
:10004000D700000800000000D7000008D700000813
:10005000D7000008A9060008E5060008D700000838
:1000600000000000D7000008D7000008D7000008F3
:10007000D7000008D7000008D700000800000000E3
:10008000D70000080000000000000000D7000008B2
:1000900000000000D7000008CF160008D7000008B5
:1000A00000000000D700000800000000F51600085E
:1000B0000348854600F03AFA00480047ED20000862
:1000C000080600200448804704480047FEE7FEE792
:1000D000FEE7FEE7FEE7FEE7CD160008B1000008E8
:1000E00030B50B46014600202022012409E00D46D0
:1000F000D5409D4205D31D469540491B2546954058
:1001000040191546521E002DF1DC30BDD2B201E07F
:100110000270401C491EFBD270470022F6E710B562
:1001200013460A4604461946FFF7F0FF204610BD65
:10013000421C0178401C0029FBD1801A7047F0B5A1
:100140001FB40646002082B005464024019100906D
:100150001BE0019922460F46304600F009FA049A46
:10016000059B801A994110D310461946224600F08B
:10017000EFF9361A8F410197224601200021009F96
:1001800000F0E6F938184D4100902046641E002822
:10019000DFDC019B00982946324607B0F0BD000025
:1001A000F0B507460846584087B0C00F0490480095
:1001B0000E46590040084908BC1A884105D2384605
:1001C00031461E4617460B4602465800400810436B
:1001D0004CD0300D039040055900400D490D05905D
:1001E000401A0290402872DA18030121000B090519
:1001F0000843019004980092002805D001995242CA
:100200000020884100920190029840210A1A019929
:10021000009800F09DF905460C466B4607CB00F0B0
:10022000B8F9C0197141039A0E0D0023D717564033
:100230001A467A40164344D0049A002A2DD0029AD6
:10024000012A039A15DC1205C01A914101263605D0
:10025000001C7141D20F059ED207009301920296B5
:100260002A46234600F0B5F907B0F0BD38463146BE
:10027000FAE71605224A0F46B218C01AB741012103
:100280000905001C4F4100187F411146181879419B
:10029000E20F10436D19644113E0E2076D08154346
:1002A0006408C2071443039A01261205C01A91413B
:1002B0003605001C7141CE07400830434908C0187C
:1002C00051412A46234600F077F9CDE7FFE704982D
:1002D00001224000C117121A00238B4104983146B5
:1002E000C417381AA141EEE730B40124E407634093
:1002F00030BC55E730B40124E407614030BC4FE71F
:100300000000E0FFF0B51FB488B00B9909980024F5
:1003100048400999C00F490049080991C0070B9945
:100320000090490049080B9109990898A64608438E
:100330001CD00B990A98084318D009980124400052
:10034000420D4800410D099824050003000B20438D
:1003500009900B980003000B20430B9050181C4988
:100360004018002201901446104605E00020014686
:100370000DB0F0BD032801DA034600E003239C46DC
:10038000C11A0AAE0AE05F0008ADED5B4F00F75BF3
:100390007D430027AA187C41491C5B1E6145F2DDA4
:1003A000410004AB5A522104120C0A43240C401C95
:1003B0000828DFDB019802900099704601910090B7
:1003C000059B049A0799069800F003F9D0E700000E
:1003D0000DFCFFFFF0B50C465C4085B0E40FE40770
:1003E00003944C00002664085900944649080246CC
:1003F0000296224321D062460A431ED06200570D66
:100400004A000E032303550D012402462C492405FE
:10041000781B1B0B360B4018234326436146009084
:100420001C46501AB44103D30098401C009002E0CF
:10043000921800985B41002803DA0020014605B0BD
:10044000F0BD0020012109050746864611E06446FB
:100450001D46141BB54106D36546521BB341744675
:1004600007430C43A646CD07400849082843921885
:100470005B4105460D43EAD11046184313D0604650
:10048000194650407140084306D06046101AB341E7
:1004900006D20122002306E000220123DB0702E04E
:1004A0000122D2435310009874460105381C614163
:1004B000029C039D0019694100F07EF8BFE700002F
:1004C000FD0300004A0009030123090B1B05194322
:1004D0000A4B10B5520D9A4202DA0020014610BDB7
:1004E000064B34339A4203DC9A1A00F041F810BDEF
:1004F000034BD21800F02CF810BD0000FF030000E1
:10050000CDFBFFFF10B5002904DB0124E4074042C6
:100510008C412146002B04DB1C460123DB075242A1
:10052000A341994200D1904210BD0000064C012524
:10053000064E05E0E36807CC2B430C3C984710348B
:10054000B442F7D3FFF7B8FDD8210008F82100081E
:1005500010B5202A04DB0146203A9140002010BD4E
:10056000914020239C1A0346E3401943904010BD5C
:1005700010B5202A04DB0846203AD040002110BDE7
:100580000B46D340D0402024A21A9140084319467C
:1005900010BD10B5202A06DBCB170846203A1041C3
:1005A000C1170B4306E00B461341D0402024A21A8A
:1005B00091400843194610BD10B5002B08DA0024FD
:1005C000401C614192185B411A4301D14008400030
:1005D00010BDF0B51FB482B005460C0003D008462C
:1005E00001F0C0F802E001F0BDF8203002460090B2
:1005F00021462846FFF7ACFF049B059A04460F46A8
:1006000018431143084314D0184610431BD00098D8
:1006100040210A1A18460599FFF7AAFF05460E461B
:10062000009A05990498FFF793FF084305D001202D
:1006300004E02046394607B0F0BD0020C11705434D
:100640000E432C43374300990E986305401A7905F1
:10065000E40A00220C43FD0A0A3002D500200146BC
:10066000E9E70105101969410C9C0D9D00196941CC
:10067000FFF7A2FFDFE7000000B5012087B080048C
:1006800000F0AAF840200090012001900020039083
:100690000490032002906946024800F03FF907B039
:1006A00000BD00000004004810B500F001F810BDC6
:1006B00010B5022000F028F9002805D003490220D7
:1006C000486103A001F018F810BD000000040140CB
:1006D0006B6579312049525148616E646C657221B5
:1006E0000D0A000010B500F001F810BD10B508208B
:1006F00000F00AF9002805D003490820486103A04A
:1007000000F0FAFF10BD0000000401406B65793273
:100710002049525148616E646C6572210D0A0000D7
:10072000FEE7000070B5012086B0400400F054F8E8
:100730000120800400F050F800245020012503948B
:1007400003266A46049461C209206946C00600F087
:10075000E5F8802003946A46049461C26946024821
:1007600000F0DCF806B070BD0004004870B5836886
:100770000022DB07DB0F02D00122104670BD8C681F
:100780004B68C5682343CC68054E35402C43234352
:10079000C360036909689B009B080B430361ECE796
:1007A000C73FFFFF30B583680022DB07DB0F02D0B5
:1007B0000122104630BD18C94D6823430C68896872
:1007C0002C4323430B43C168024C21400B43C360BD
:1007D000EFE700003CC2FEFF08B504494A69024346
:1007E0004A6149690140009108BD000000100240C3
:1007F00008B504494A6902434A61496901400091C8
:1008000008BD00000010024008B504494A690243CF
:100810004A6149690140009108BD00000010024092
:1008200008B50449CA690243CA61C9690140009117
:1008300008BD00000010024008B50449CA6902431F
:10084000CA61C9690140009108BD00000010024062
:1008500008B504498A6902438A61896901400091A7
:1008600008BD00000010024010B50479002325499E
:100870000268002C3DD0002A42D04479002C0FD0D1
:10088000012C15D0022C16D001238279002A37D0F2
:10089000012A18D0022A1FD0032A21D001232FE0D9
:1008A0004C6894434C6002680C6814430C60ECE79D
:1008B0000C68944301E00C6814430C6002684C68B7
:1008C00014434C60E1E70268CC689443CC60006854
:1008D0008A6802438A6013E002688C68944302E0ED
:1008E00002688C6814438C600068CA680243CA605E
:1008F00006E00C6894430C6000684A6882434A60D2
:10090000184610BD0004014003494969884301D0DD
:10091000002070470120704700040140F0B500241A
:100920003EE001232A46A3401A4038D04F680668AB
:10093000134653435D005D19AE435F433E4306607B
:100940004E68012E01D0022E05D18F6886685F4364
:10095000AE433E4386600F69C668AE431D467D4385
:100960002E43C6604D68022D19D1FF2A0AD84E6960
:10097000056A534353431A01D21A954373431D43E7
:1009800005620CE0130A1A465A435A435A431301AC
:100990009E1A4D69436A6A43B34313434362641C1E
:1009A0000A681546E240BCD14A68012A01D0022AF1
:1009B00006D1CB6841682A4691435A4311434160AE
:1009C0000020F0BD10B5036849434C000C19A34347
:1009D00051430B43036010BD10B5C36849434C003D
:1009E0000C19A34351430B43C36010BD30B50268DB
:1009F0005208520002608C68CA6803681F252D02E5
:100A00001202AB432243134303604A680261026847
:100A100001231A43026083680122D2039343836057
:100A20008C690B6985682343ED0AED021D438560DF
:100A30000B69002B02D08368134383600C68036842
:100A400003252D05AB43234303604B694168914364
:100A500019434160002030BD10B57D21C900FFF76A
:100A60003FFB0449401E4861002088610520086161
:100A700010BD000000E000E0014610B50020002994
:100A80000FD110490A6B9207920F012A0AD0022A4D
:100A900011D0032A09D000F05BFD00F03FFD00F00B
:100AA0004BFD10BD00F054FD10BD09688907C90F4A
:100AB000FAD0054810BD096A8907C90FFAD001208C
:100AC000C00310BD0010024000127A000A06930D08
:100AD000054A10B59B189A68090C0F248C40A24354
:100AE000884002439A6010BD00000140014908603F
:100AF00070470000040000200A7B03231B029A4376
:100B00008B681A4301239B029A434B681A430123C3
:100B1000DB029A430B681A4301231B039A43CB89D8
:100B20001A4301235B039A430B6949691A43012362
:100B30009B039A430A435B009A430A4342640020A2
:100B40007047000070B50268174B184D984201D0ED
:100B5000A84203D17024A2434C682243144E154C82
:100B6000984208D0A84206D0134DA84203D0B04204
:100B700001D0A04204D103252D02AA43CD682A4307
:100B800002608A68C2620A888262984203D0B042D8
:100B900001D0A04201D1097C0163416901221143C6
:100BA0004161002070BD0000002C014000040040A5
:100BB000004401400048014000200040012910D0BD
:100BC000042910D0102910D0402910D0CA1FF93A9A
:100BD00005D00122920291420BD105210AE00421A5
:100BE00008E0002106E0012104E0022102E00321E7
:100BF00000E00621064A1830525C10180268044BC7
:100C0000DB1D5B5C042199408A4302607047000051
:100C1000B021000870B50B460121012B36D0102BF6
:100C200038D0FF3B5B1E3AD00F242402A3422BD1C5
:100C3000016A01252D03A9430162036A4168C46961
:100C400073263602B4431668360234436E00B3434B
:100C5000166936033343AB4355682D032B43124DBE
:100C6000A84205D0114DA84202D0114DA84205D18D
:100C70000125AD03A9439569AD0129434160C461D4
:100C8000D168016403620021084670BD114600F07E
:100C900077FB02E0114600F0B5FB0146F4E7114690
:100CA00000F0F4FBF9E70000002C01400044014093
:100CB0000048014070B5044600680D4601263040EA
:100CC0003CD1E9686868AA69084329691143084367
:100CD00021681B4A114008432060A868616803220C
:100CE00012039143014361606969A0681211904346
:100CF0000843A0601348844220D10020FFF7BCFEC7
:100D000000281BD02968002918D00123AA690026D1
:100D1000DB039A420CD140004A088018FFF7E0F943
:100D200081B2094808400907490F0143E16005E025
:100D30004A081018FFF7D4F980B2E060304670BD61
:100D4000F369FFFF00380140F0FF0000F0B591B0FB
:100D500000250B950C950D95142106A80E95FFF70F
:100D6000DCF918216846FFF7D8F945488069012168
:100D700049020843424988618869491508400F9033
:100D80000802FFF741FD01208004FFF73DFD012728
:100D9000032409206946C006009704950194FFF7D3
:100DA000BDFD042609206946C006009604950194FD
:100DB000FFF7B4FD082000900920694604950194CE
:100DC000C006FFF7ABFD202000900920694604957E
:100DD0000194C006FFF7A2FD80200090092069461B
:100DE00004950194C006FFF799FD694625480097D0
:100DF00004950194FFF792FD022000906946049546
:100E000001942048FFF78AFD1F4CA06A3843A06276
:100E1000A06A3043A062A16A08200143A162A16ACE
:100E200020200143A162A16A80200143A162A06A3F
:100E3000A1150843A062A06A49000843A0620B956F
:100E40000C950D950BA920460E95FFF78FFC069586
:100E50000795089506A9204609970A95FFF7A2FC71
:100E6000E068B043E0606069C008C000606160682D
:100E7000B0436060616808208143616011B0F0BDDB
:100E8000001002400004004800240140F0B589B081
:100E900000240694182168460794FFF73EF90120C4
:100EA0008005FFF7A5FC01204004FFF7A1FC012508
:100EB000AD042846FFF79CFC10200927FF06B86206
:100EC0004020B86229460020FFF700FE0321890474
:100ED0000120FFF7FBFD012202213846FFF77CFDD0
:100EE000012208213548FFF777FD0022022138460C
:100EF000FFF768FD002208213048FFF763FD022557
:100F000001266846069506774477857706A8FFF799
:100F1000ABFC08200690684606774477857706A8DC
:100F2000FFF7A2FC102000900294039469460196FA
:100F300004943846FFF7F2FC40200090029403949A
:100F40006946019604943846FFF7E8FCE802032658
:100F500000906946019604943846FFF7DFFCA80329
:100F6000039404946A46059461C269463846FFF7C3
:100F7000D5FC1020039404946A46059461C2694626
:100F80000E48FFF7CBFC2020039404946A46059496
:100F900061C269460948FFF7C1FC0021052000F045
:100FA00005FC052000F0F6FB0021062000F0FEFB0A
:100FB000062000F0EFFB09B0F0BD0000000400487F
:100FC000F0B58FB01C2106A8FFF7A7F818216846D6
:100FD000FFF7A3F8284C0120616980040143616197
:100FE00061690125014003950D91402002260327E8
:100FF000049505956A46C1C269462048FFF78EFCF4
:101000008020039504956A460595C1C269461B4830
:10101000FFF784FCE16968050143E161E169184C6F
:1010200001400D916068690608436060E1681548F9
:1010300001400020E160144A616911436161216847
:10104000EA0491432160E16812119143E160216853
:101050009200914321600D490791069008900990F4
:101060000C900A9606A92046FFF7C0FC2068E90507
:10107000884320600FB0F0BD00100240000400481B
:101080000054004001F8FFFF618000000E090020BD
:1010900010B586B014216846FFF73FF8FF200130F5
:1010A000FFF7CAFB002069460880064C01900290B9
:1010B00003902046FFF746FD20688021884320608A
:1010C00006B010BD0020004010B586B0142168465F
:1010D000FFF723F801204004FFF7BAFB0020694620
:1010E0000880019002900390054C08742046FFF799
:1010F00029FD206880218843206006B010BD0000D3
:101100000044014010B586B014216846FFF705F889
:1011100001208004FFF79CFB0D490A68FF200004B2
:10112000824300200A6001210A4A8905116069464C
:101130000880019002900390074C08742046FFF746
:1011400001FD206880218843206006B010BD0000AA
:1011500014E400E000E100E000480140F0B59BB07D
:10116000142106A8FEF7D9FF20210BA8FEF7D5FF12
:1011700018216846FEF7D1FF182113A8FEF7CDFF0E
:101180000126F6023046FFF763FB0024684604831D
:101190000794089408A809942D4D047206A92846BE
:1011A000FFF7D0FC28688027B84328600B940C9484
:1011B0000D940E940F94109411940BAA01212846BB
:1011C0001294FFF727FD01212846FFF7F7FC0C9446
:1011D0000BAAA91428460D94FFF71CFDA914284654
:1011E000FFF7ECFC6868702188436860A868B84322
:1011F000A86000940194684602940473C481681442
:101200000490694605942846FFF776FC1148B10121
:1012100042690A4342614069022508401990481218
:1012200009271895FF06139015941694149513A981
:1012300017943846FFF772FB13961594169414957D
:1012400013A9384618951794FFF768FB1BB0F0BD3B
:10125000002C01400010024010B586B014216846F1
:10126000FEF75BFF0220FFF7E7FA002069460880DF
:1012700001900D480290012040020C4C0390204642
:10128000FFF760FC2168802001432160A168084AC3
:101290001140A1606168702291436160A16881433F
:1012A000A16006B010BD00000F2700000004004040
:1012B000F8BFFFFFF0B58FB01C2106A8FEF72DFF89
:1012C00018216846FEF729FF284801218269890311
:1012D0000A43826182690A400D924269C9000A4349
:1012E00042614069002408400D9008120125022641
:1012F000032703946A4605950494C1C209206946F0
:10130000C006FFF70BFBA80203946A4605950494F8
:10131000C1C209206946C006FFF700FB14480168F6
:101320000902090A01601349E80608604B20C00160
:1013300006900794089409940B940C940C200E4C7E
:101340000A9006A92046FFF7B5FCA1682015814345
:10135000A1606068E11488436060A0680821884348
:10136000A0602068284320600FB0F0BD001002404C
:1013700018E400E000E100E00038014070470000A0
:1013800030B5026A520852000262026A43688469F8
:101390007025A408A400AC430D682C430225AA4381
:1013A0000D692A4352084D6852002A43124DA84243
:1013B00005D0124DA84202D0114DA84214D10825E3
:1013C000AA434D69AD002A430425AA438D68AD00A8
:1013D0002A43FF250135AB438D692B4301256D025F
:1013E000AB43CD696D002B4343608461C9684163A1
:1013F0000262002030BD0000002C0140004401408A
:101400000048014070B5026A1025AA430262026AD0
:101410004368846973263602B4430E683602344347
:101420002026B2430E6936013243AA434D682D018E
:101430002A43134DA84205D0124DA84202D0124DA6
:10144000A84215D18025AA434D69AD012A43402504
:10145000AA438D68AD012A430125AD02AB438D69D6
:10146000AD002B430125ED02AB43CD69ED002B43CD
:1014700043608461C96881630262002070BD00001E
:10148000002C0140004401400048014070B5026A50
:10149000FF250135AA430262026A4368C4697026C7
:1014A000A408A400B4430E6834436E00B2430E692E
:1014B00036023243AA434D682D022A43134DA842F7
:1014C00005D0134DA84202D0124DA84217D10125D4
:1014D000ED02AA434D69AD022A430125AD02AA439C
:1014E0008D68AD022A4301252D03AB438D692D0183
:1014F0002B4301256D03AB43CD696D012B43436045
:10150000C461C968C1630262002070BD002C014043
:101510000044014000480140704700000449496808
:10152000F0221140034A0909515CC840704700008D
:1015300000100240BE21000803494968034A4905DA
:10154000490F515CC840704700100240CE2100088E
:1015500010B5064841680C200140054805D0042913
:1015600003D0082901D100F005F810BD0010024099
:1015700000127A0010B50C4C6168012212040B486D
:10158000114002D0914200D14000E16A0907090FE1
:10159000491CFEF7A5FD61680F2292041140890CD9
:1015A000891C484310BD00000010024000093D00A6
:1015B000F0B5012087B08004FFF70EF900240D4834
:1015C0000125039403266A46049461C209206946F2
:1015D000C006FFF7A3F903940494074C102769464B
:1015E0000097029601952046FFF798F9A76207B089
:1015F000F0BD0000049900000004004870477047E7
:1016000070B52F48012102688A430A4302600068CE
:101610002C4C20680A461043206020688007C00FC9
:10162000FBD02368F820834380210B432360636B46
:1016300013436363626B9207D20FFBD0626B8243EA
:101640000A43626305216068C9043D221204904385
:1016500008436060E06A00090001E062206801213F
:1016600009060843206020688001C00FFBD0606835
:10167000F021884360606068072109028843606048
:101680006168022089088900014361600C2160685B
:1016900008400828FBD10C4D2846FFF7DDF9284605
:1016A000FFF724FA606B042188436063206B800895
:1016B00080002063206B10218843206370BD0000F0
:1016C0000020024000100240006CDC02704710B5A0
:1016D00000F002F810BD000010B502A000F00CF8F8
:1016E00010BD000074696D3137202E2E2E200D0A9A
:1016F00000000000704700000FB410B50121002465
:1017000003AB49020A48029A00F016F80848FEF7AF
:101710000FFD0849064B05E01A5D0A85641CCA697D
:101720001206FCD58442F7D310BC08BC04B018479D
:1017300008000020003801407CB515460246002014
:101740001C4600290BD0491E00920191044B6A46A9
:101750002146284600F016F9009A002111707CBD40
:10176000BD2000082021020C01D010211046020AE1
:1017700001D010460839020901D01046091F82081D
:1017800001D01046891E420801D0881E7047081AF1
:1017900070470000002805DBC106C90E0120884003
:1017A000014908607047000000E100E08307FF2264
:1017B000DB0E9A408907090E9940002808DB830850
:1017C00009489B001B18186890430843186070472D
:1017D0000007000F0838830804489B001B18D869CD
:1017E00090430843D861704700E400E000ED00E05A
:1017F00002E008C8121F08C1002AFAD170477047DA
:10180000002001E001C1121F002AFBD17047000037
:10181000F0B51FB486B00998089A030D0021024361
:1018200014D05148514A18185043051411980128F2
:1018300010981AD0281A401C00264D4F4D4900968A
:1018400001910490002812DA444211E01198012419
:1018500049A3012801D11098C1430698119A8460C8
:101860000360C26041600BB0F0BD4042E4E7044653
:10187000210500203F4A001C51410391029012E0D3
:10188000E00707D032463B4601990098FEF73AFD43
:101890000191009032463B4610461946FEF732FD54
:1018A00006460F466410002CEAD10498039B0028DA
:1018B000029A0999089806DAFEF724FD019B009A1E
:1018C000FEF720FD05E0FEF785FD019B009AFEF77F
:1018D00081FD04460E460022284BFEF713FE03D876
:1018E0000020C043014607E00022254B2046314638
:1018F000FEF756FCFEF7E6FD102409E0002C0ADB9B
:101900000A220023FEF71BFC079B30321A55641E87
:1019100002460A43F2D11122641C079B121B1C19B8
:10192000119B012B03D0012308430ED10AE0084389
:1019300004D0112010900020119077E71098151A0C
:101940006D1E0BE01098824202DD00236D1C03E047
:10195000824201DA00236D1E002BEED00698119909
:101960008260C16030C07EE701FCFFFF104D0000C7
:10197000000014400000F03F300000000000F04381
:101980000000E03FFFB597B00646002518E2252885
:1019900077D100242746FD49049400E00443761CD7
:1019A00032780120203A90400842F7D130782A2836
:1019B0000ED00222307801463039092916D8049910
:1019C0000A235943303940181443761C0490F1E738
:1019D000189802C804911890002904DA01204003E5
:1019E00004434842049002200443761C30782E2899
:1019F00014D1042004437078761C2A2809D1189841
:101A0000761C80C8189009E00A214F43303FC7195F
:101A1000761C3078014630390929F5D930786C28A0
:101A200010D006DC4C281AD068280ED06A2817D1AE
:101A300004E0742813D07A2812D110E00120400568
:101A400004430CE00121090501E0032109050C43D1
:101A50007178814203D1012000052418761C761C80
:101A60003078119066280BD013DC58287DD009DC23
:101A700000287BD04528F6D04628F4D047281AD134
:101A8000A5E118E0632835D0642870D0652812D10C
:101A90009DE170286CD008DC6728F1D069287BD0E4
:101AA0006E280DD06F2806D1BAE073282ED0752885
:101AB00071D0782859D01A9A199990476D1C7EE1F7
:101AC0006002400F022809D003280DD0042818987E
:101AD00001680DD00D60001D189070E11898EA178C
:101AE00001680D604A60F6E7189801680D80F2E71A
:101AF0000D70F0E718986A4601781172001D189071
:101B00000020507202A80090012005E0189802C839
:101B1000189000200091C04361070DD5002101E01D
:101B20000199491C0191B94212DA8142F8DB009A0D
:101B3000515C0029F4D10BE0002101E00199491C1E
:101B400001918142FADB019A0099895C0029F5D163
:101B5000019904981A9B471A21463846199A00F0B1
:101B600097FA0199401945180BE04FE02CE113E07A
:101B70004EE0009800990078491C00911A9A199932
:101B800090470198401E0190401CF2D121463846F2
:101B90001A9B199A10E137E00A2000210090019168
:101BA0006002410F022907D0189A01CA1892C21781
:101BB0009446032908D00AE01898C01DC108C9003E
:101BC00005C91891944607E000B2C217944604294B
:101BD00002D140B2C1178C4600226146944506DA14
:101BE0000A460021404291418C462D2102E0210508
:101BF00004D52B216A461173012103E0E10701D0CE
:101C00002021F7E7029155E00A200AE0102008E0C1
:101C1000102000900021042004430191082703E0D4
:101C200008200021019100906002410F022907D095
:101C3000189A01CA189200229446032908D008E095
:101C40001898C01DC108C90005C91891944603E041
:101C500080B2042900D1C0B200210291210729D508
:101C60001199702906D0009A1021019B4A401A430D
:101C700005D00EE040216A461173012108E061465B
:101C8000014306D030216A46117311995173022124
:101C90000291009A0821019B4A401A430AD16146E9
:101CA000014301D1610705D530216A461173012135
:101CB0007F1E02911199582904D035A10E910DA9CA
:101CC0000D910DE037A1F9E76146019B009AFEF7FF
:101CD00036FA0E9B8C469B5C0D9A521E0D92137029
:101CE00061460143F0D10D9805A9081A20300190F2
:101CF000600703D501200004844300E00127019818
:101D0000874201DD381A00E0002001990090411857
:101D1000029809180498401A0490E00306D421465A
:101D20001A9B199A049800F0B3F94519002706E0A8
:101D300003A81A9AC05D199990476D1C7F1C0298E0
:101D40008742F5DBE0030CD521461A9B199A0498CB
:101D500000F09EF9451904E01A9A3020199990472D
:101D60006D1C0099481E00900029F5DC08E00D98D4
:101D70000D990078491C0D911A9A199990476D1C7C
:101D80000199481E01900029F1DC63E10928010056
:101D900030313233343536373839616263646566E1
:101DA00000000000303132333435363738394142A3
:101DB000434445460000000000F05AF94519761CDE
:101DC0003078002800D0E2E528461BB0F0BD60075F
:101DD00000D406271898C01DC108C90048680A68C1
:101DE0000831C30FDB071891190001D09CA108E04E
:101DF000210501D59BA104E0E10701D09AA100E0F3
:101E00009AA1430011985B08109165280CD006DC5C
:101E1000452809D046281DD0472841D141E06628F1
:101E200018D067283CD13CE00021112F01DB1120A4
:101E300000E0781C0191009008A911A8FFF7E8FCC8
:101E4000139905910021119A15927F1C1298019700
:101E5000009150E00120C00703900120019008A9E3
:101E6000009711A8FFF7D4FC139A14990592002249
:101E7000119B009212981593059A0192002901D0A6
:101E8000104602E0791C40180190381A01D50198DB
:101E900004E04042401E0090781C0190C01B02905C
:101EA00043E0012F00DA01270021112F01DD11206D
:101EB00000E038460191009008A911A8FFF7A8FC9E
:101EC00013990591119A002112981592009101978A
:101ED00021070CD40599B94201DB019900E0019179
:101EE000012904DD159A491E515C302906D0B842FB
:101EF00001DA011D05DA0121029115E00199491E5F
:101F0000EDE7002805DC0099411800910199091AB4
:101F100003E0019A411C914200DD01910099401AB1
:101F2000401C02900120C0070390200706D40299AC
:101F30000198814202DB0020C043029000206946E4
:101F4000C87707AF012103980337C907884224D017
:101F5000022011902B201290039800280CDA4042A6
:101F600003902D20129007E00A210398FEF7B8F89D
:101F700030317F1E039039701199481E119000294D
:101F8000F2DC03980028EFD1791E1298087030789F
:101F9000202108404530BF1E387006A8C01BC01D58
:101FA000039010980078002800D001200199411872
:101FB0000298C0170918039809180498401A401E7F
:101FC0000490E00306D421461A9B199A049800F065
:101FD0005FF8451910980078002803D01A9A1999CB
:101FE00090476D1CE00324D521461A9B199A04984A
:101FF00000F04EF845191CE00098002807DB009916
:102000000598884203DD1598405C199901E01999FB
:1020100030201A9A904700986D1C401C009002983E
:10202000401E0290002804D11A9A2E201999904738
:102030006D1C0199481E01900029DDDC05E038780F
:102040001A9A7F1C199990476D1C0399481E03909A
:102050000029F4DC21461A9B199A0498ACE600008A
:102060002D0000002B0000002000000000000000F8
:10207000F8B5044600251E461746880404D405E03A
:1020800039462020B0476D1C641EF9D52846F8BD9E
:10209000FFB50446002581B01E46C80301D5302790
:1020A00000E02027880404D505E038460399B047AE
:1020B0006D1C641EF9D5284605B0F0BD4A68002A9B
:1020C00006D00A68531C0B6010704868401E4860B8
:1020D00070470000044B03E01946491E09B2FCD2C8
:1020E000401E00B2F8D270478713000008B5274899
:1020F000012182690A4382618069084000900807D3
:10210000FEF78EFBFFF77CFAFEF7C0FEFEF71EFE21
:10211000FFF7D0F8FFF7A0F8FEF752FFFFF71EF821
:10212000FEF7F0FFFEF7B4FFFEF7CEFF18492F20B1
:102130008862FEF7A1FAFEF7F5FAFFF739FAFF25F4
:10214000F5352846FFF7C6FF12A0FFF7D5FA284657
:10215000FFF7C0FF124C4021A1616420FFF7BAFFD6
:102160004021A1622846FFF7B5FF0E48012101700A
:1021700002214170032181700421C1700AA0FFF780
:10218000BBFA6420FFF7A6FFF8E70000001002404A
:102190000048014073746172746564200D0A000088
:1021A00000040048000000202E2E2E0D0A00000022
:1021B0000000000004040400000800000008000003
:1021C00000000000000001020304060708090000E7
:1021D0000000010203040000F821000800000020B4
:1021E00008000000F0170008002200080800002086
:1021F00000060000001800080000000000127A002D
:04000005080000B13E
:00000001FF
